:100000000EC026C025C024C023C0E6C121C020C028
:100010001FC01EC01DC01CC01BC07AC0C1C011249F
:100020001FBECFEDCDBF10E0A0E6B0E0E0E9F4E008
:1000300002C005900D92A636B107D9F720E0A6E6DA
:10004000B0E001C01D92AE39B207E1F7C1D11EC2C6
:10005000D7CF44E050E060E670E08DE690E091C1DB
:1000600040E950ED63E070E08DE690E05AD160E544
:1000700070E08DE690E054D169E270E08DE690E0AA
:10008000A2C1089591E0811101C090E090936600B3
:1000900008951092690010926A0010926700109201
:1000A00068000895CF93C82FF4DFC0936C001092BE
:1000B0007400109273001092720010927100C29A34
:1000C000C09ABA9AB89888EA8DB980EF8EB9CF9164
:1000D0000895909168009F5F9F7020916700291795
:1000E000E1F3E92FF0E0E257FF4F8083909368003F
:1000F00008959091690080916A00891B8F7008951E
:1001000090916800809167009F5F891B8F700895B0
:100110001F920F920FB60F9211240F931F932F93DC
:100120003F934F935F936F937F938F939F93AF937F
:10013000BF93CF93EF93FF930091710010917200E2
:100140000115110561F0C0916A00809169008C175A
:1001500031F0CFDF90E0F8010995C093690010926B
:100160006B00B898B29B1AC0B09BFCCF88EA8DB9DF
:1001700080EF8EB9FF91EF91CF91BF91AF919F9199
:100180008F917F916F915F914F913F912F911F912F
:100190000F910F900FBE0F901F90189588EFE7CF2B
:1001A0001F920F920FB60F9211240F931F932F934C
:1001B0003F934F935F936F937F938F939F93AF93EF
:1001C000BF93CF93EF93FF9380916B00823009F43C
:1001D00076C0C8F4882399F1813009F456C0FF91A4
:1001E000EF91CF91BF91AF919F918F917F916F913F
:1001F0005F914F913F912F911F910F910F900FBEE3
:100200000F901F901895843009F45FC0B8F18530C5
:1002100031F784E080936B009FB180916A008F5F1B
:100220008F7020916900281709F470C080936A00CC
:10023000E0916A00F0E0E258FF4F908319C08FB15F
:10024000882331F08FB1869590916C00891319C085
:10025000789B12C0E0917300F0917400309729F000
:100260008091680080936700099581E080936B001E
:100270001FB8B89A8EE721C084E0F8CF8FB18823E9
:1002800021F0B89888EA8DB917C0809167009091E5
:1002900068009817B1F3809167008F5F8F7080932B
:1002A0006700E0916700F0E0E257FF4F80818FB96F
:1002B00082E080936B00B89A80E78EB990CF83E09C
:1002C00080936B00B8981FB8D5CF85E080936B0002
:1002D000B89880E78EB900917100109172000115F5
:1002E000110509F47CCFC0916A00809169008C17D8
:1002F00009F475CF8EB18E7AE9F3759B70CFF9DE74
:1003000090E0F8010995C093690069CFB898B2CF21
:10031000862F1092700010926F0010926E00C2CE65
:10032000F7CF81E041345D406340710508F480E01F
:10033000A9CECF9380916E008823E1F080916F0069
:10034000803220F090E080E0CF910895E09170003D
:100350008091640090916500E80FF92FF11D608392
:10036000809170008F5F8093700080936F0081E0B8
:1003700090E0EACFC62FC4DE882321F38C2FA9DEBC
:10038000F6CFCF92DF92EF92FF920F931F93CF930E
:10039000DF936C01EB017B01E40EF51E10E000E041
:1003A000CE15DF0531F06991C601C3DF080F191FB3
:1003B000F7CFC801DF91CF911F910F91FF90EF9080
:1003C000DF90CF9008957093740060937300089548
:1003D0004DD046DE56DEFECF1F920F920FB60F9223
:1003E00011242F933F938F939F93AF93BF9380914B
:1003F000760090917700A0917800B09179003091CB
:10040000750026E0230F2D3768F129E8230F0396A6
:10041000A11DB11D20937500809376009093770005
:10042000A0937800B093790080917A0090917B003E
:10043000A0917C00B0917D000196A11DB11D80931B
:100440007A0090937B00A0937C00B0937D00BF91D5
:10045000AF919F918F913F912F910F900FBE0F9071
:100460001F9018950296A11DB11DD4CF83E08ABDBF
:1004700083BF789489B7826089BF80E48CBD8FEF99
:100480008DBD87EC80BF86E886B90895F894FFCFCC
:060490000008008F7E0051
:00000001FF
